201670734KERRY EXPRESS(SIAM SHOP) 101344729517/06/1700000000000 000000000000 0000000000000000000000000000000000000000               00000000000000000000000000000000000000000000000000000171670110711                                                           
201670734                         0000000000        00080249085S015634041918S1606174283800091006323000000041500136090               00000000000000000000000000000000000000000000000000000000000000000                                                           
201670734                         0000000000        00080249085S015634041919S1606174162020020974238000000051000113550               00000000000000000000000000000000000000000000000000000000000000000                                                           
201670734                         0000000000        00080249085S015634041920S1606174283731030883920000000046000002467               00000000000000000000000000000000000000000000000000000000000000000                                                           
201670734                         0000000000        00080249085S015634041923M1606175239620000949062000000485000R02841               00000000000000000000000000000000000000000000000000000000000000000                                                           
201670734                         0000000000        00080249085S015634041928S1606173563420002504325000000154500868603               00000000000000000000000000000000000000000000000000000000000000000                                                           
201670734                         0000000000        00080249085S015634041935S1606175444880433205117000000963000R96770               00000000000000000000000000000000000000000000000000000000000000000                                                           
201670734                         0000000000        00099901082S000394000001B16061700000887000058590000000180000012D2               00000000000000000000000000000000000000000000000000000000000000000                                                           
201670734                         0000000000        00099901082S000394000002B16061700000880005027950000000075000012D3               00000000000000000000000000000000000000000000000000000000000000000                                                           
201670734                         0000000000        00099901082S000394000003B16061700000880025420240000001020000012D4               00000000000000000000000000000000000000000000000000000000000000000                                                           
201670734                         0000000000        00099901082R000394000004B16061700000880025420240000001020000012D5               00000000000000000000000000000000000000000000000000000000000000000                                                           
201670734                         0000000000        00099901082S000394000005B16061700000880025420240000000990000012D6               00000000000000000000000000000000000000000000000000000000000000000                                                           
201670734                         0000000000        00099901082S000394000006B16061700000880004762550000000030000012D7               00000000000000000000000000000000000000000000000000000000000000000                                                           
201670734                         0000000000        00099901082S000394000007B16061700000880012222140000000065000012D8               00000000000000000000000000000000000000000000000000000000000000000                                                           
201670734                         0000000000        00099901082S000394000008B16061700000880014991850000000075000012D9               00000000000000000000000000000000000000000000000000000000000000000                                                           
201670734                         0000000000        00099901082S000394000009B16061700000887504683080000000120000012DA               00000000000000000000000000000000000000000000000000000000000000000                                                           
201670734                         0000000000        00099901082S000394000010B16061700000887504683080000000212700012DB               00000000000000000000000000000000000000000000000000000000000000000                                                           
201670734                         0000000000        00099901082S000394000011B16061700000887504683080000000845100012DC               00000000000000000000000000000000000000000000000000000000000000000                                                           
201670734                         0000000000        00099999999 000000000000 0000000000000000000000000000000000000000BBL CARD       00000000000000000000000000000000000000000000000000000000000000000                                                           
201670734                         0000000000        00099999999 000000000000 0000000000000000000000000000000000000000BBL AFFINITY   00001000000104270000000073000000004738430000000485000000000000000                                                           
201670734                         0000000000        00099999999 000000000000 0000000000000000000000000000000000000000VISA CARD      00003000000012900000000009000000001371200000000138500000000000000                                                           
201670734                         0000000000        00099999999 000000000000 0000000000000000000000000000000000000000VISA AFFINITY  00000000000000000000000000000000000000000000000000000000000000000                                                           
201670734                         0000000000        00099999999 000000000000 0000000000000000000000000000000000000000MASTERCARD     00000000000000000000000000000000000000000000000000000000000000000                                                           
201670734                         0000000000        00099999999 000000000000 0000000000000000000000000000000000000000MASTER AFFINITY00001000000163710000000114600000009454830000000963000000000000000                                                           
201670734                         0000000000        00099999999 000000000000 0000000000000000000000000000000000000000JCB CARD       00001000000043260000000030300000001498710000000154500000000000000                                                           
201670734                         0000000000        00099999999 000000000000 0000000000000000000000000000000000000000BSS CARD       00011000000041480000000029000000002548420000000259280000000000000                                                           
201670734                         0000000000        00099999999 000000000000 0000000000000000000000000000000000000000MERCHANT TOTAL 00017000000365620000000255900000019611590000002000280000000000000                                                           
201670742KERRY EXPRESS(SILOM SHOP)101344729517/06/1700000000000 000000000000 0000000000000000000000000000000000000000               00000000000000000000000000000000000000000000000000000171670110711                                                           
201670742                         0000000000        00080249086S015635014540V1606174033754050001762000000009500004699               00000000000000000000000000000000000000000000000000000000000000000                                                           
201670742                         0000000000        00080249086S015635014541V1606174033752001264984000000006500005551               00000000000000000000000000000000000000000000000000000000000000000                                                           
201670742                         0000000000        00080249086S015635014543V1606174943517655575285000000040000008928               00000000000000000000000000000000000000000000000000000000000000000                                                           
201670742                         0000000000        00080249086S015635014545V1606174417708700339242000000040000003291               00000000000000000000000000000000000000000000000000000000000000000                                                           
201670742                         0000000000        00080249086S015635014549S1606174162020003480112000000166360162350               00000000000000000000000000000000000000000000000000000000000000000                                                           
201670742                         0000000000        00080249086S015635014553V1606174033752001264984000000006500004326               00000000000000000000000000000000000000000000000000000000000000000                                                           
201670742                         0000000000        00099901083S000137000001B1606170000088001312024000000003500000CE8               00000000000000000000000000000000000000000000000000000000000000000                                                           
201670742                         0000000000        00099901083S000137000002B1606170000088750047805000000012500000CE9               00000000000000000000000000000000000000000000000000000000000000000                                                           
201670742                         0000000000        00099901083S000137000003B1606170000088002225776000000003000000CEA               00000000000000000000000000000000000000000000000000000000000000000                                                           
201670742                         0000000000        00099901083S000137000004B1606170000088500171234000000003000000CEB               00000000000000000000000000000000000000000000000000000000000000000                                                           
201670742                         0000000000        00099999999 000000000000 0000000000000000000000000000000000000000BBL CARD       00005000000022030000000015400000001001430000000102500000000000000                                                           
201670742                         0000000000        00099999999 000000000000 0000000000000000000000000000000000000000BBL AFFINITY   00000000000000000000000000000000000000000000000000000000000000000                                                           
201670742                         0000000000        00099999999 000000000000 0000000000000000000000000000000000000000VISA CARD      00001000000009140000000006400000001653820000000166360000000000000                                                           
201670742                         0000000000        00099999999 000000000000 0000000000000000000000000000000000000000VISA AFFINITY  00000000000000000000000000000000000000000000000000000000000000000                                                           
201670742                         0000000000        00099999999 000000000000 0000000000000000000000000000000000000000MASTERCARD     00000000000000000000000000000000000000000000000000000000000000000                                                           
201670742                         0000000000        00099999999 000000000000 0000000000000000000000000000000000000000MASTER AFFINITY00000000000000000000000000000000000000000000000000000000000000000                                                           
201670742                         0000000000        00099999999 000000000000 0000000000000000000000000000000000000000JCB CARD       00000000000000000000000000000000000000000000000000000000000000000                                                           
201670742                         0000000000        00099999999 000000000000 0000000000000000000000000000000000000000BSS CARD       00004000000003520000000002500000000216230000000022000000000000000                                                           
201670742                         0000000000        00099999999 000000000000 0000000000000000000000000000000000000000MERCHANT TOTAL 00010000000034690000000024300000002871480000000290860000000000000                                                           
201670783KERRY EXPRESS(BANGYAI SHO101344729517/06/1700000000000 000000000000 0000000000000000000000000000000000000000               00000000000000000000000000000000000000000000000000000171670110711                                                           
201670783                         0000000000        00080249088S015636021588V1606174386795010517176000000203500094601               00000000000000000000000000000000000000000000000000000000000000000                                                           
201670783                         0000000000        00080249088S015636021589S1606174162020019721244000000030000105010               00000000000000000000000000000000000000000000000000000000000000000                                                           
201670783                         0000000000        00080249088S015636021591S1606174162020013591486000000018000186080               00000000000000000000000000000000000000000000000000000000000000000                                                           
201670783                         0000000000        00080249088S015636021593S1606174283800078873943000000092500122510               00000000000000000000000000000000000000000000000000000000000000000                                                           
201670783                         0000000000        00099999999 000000000000 0000000000000000000000000000000000000000BBL CARD       00001000000043750000000030600000001988190000000203500000000000000                                                           
201670783                         0000000000        00099999999 000000000000 0000000000000000000000000000000000000000BBL AFFINITY   00000000000000000000000000000000000000000000000000000000000000000                                                           
201670783                         0000000000        00099999999 000000000000 0000000000000000000000000000000000000000VISA CARD      00003000000007720000000005400000001396740000000140500000000000000                                                           
201670783                         0000000000        00099999999 000000000000 0000000000000000000000000000000000000000VISA AFFINITY  00000000000000000000000000000000000000000000000000000000000000000                                                           
201670783                         0000000000        00099999999 000000000000 0000000000000000000000000000000000000000MASTERCARD     00000000000000000000000000000000000000000000000000000000000000000                                                           
201670783                         0000000000        00099999999 000000000000 0000000000000000000000000000000000000000MASTER AFFINITY00000000000000000000000000000000000000000000000000000000000000000                                                           
201670783                         0000000000        00099999999 000000000000 0000000000000000000000000000000000000000JCB CARD       00000000000000000000000000000000000000000000000000000000000000000                                                           
201670783                         0000000000        00099999999 000000000000 0000000000000000000000000000000000000000BSS CARD       00000000000000000000000000000000000000000000000000000000000000000                                                           
201670783                         0000000000        00099999999 000000000000 0000000000000000000000000000000000000000MERCHANT TOTAL 00004000000051470000000036000000003384930000000344000000000000000                                                           
201739414KERRY EXPRESS(KINGKAEW)  101344729517/06/1700000000000 000000000000 0000000000000000000000000000000000000000               00000000000000000000000000000000000000000000000000000171670110711                                                           
201739414                         0000000000        00080204025S008066016264V1606174673084000031098000000008500675613               00000000000000000000000000000000000000000000000000000000000000000                                                           
201739414                         0000000000        00080204025S008066016265V1606174966151000329867000000046178236647               00000000000000000000000000000000000000000000000000000000000000000                                                           
201739414                         0000000000        00080204025S008066016267S1606175577552819720899000000015500059276               00000000000000000000000000000000000000000000000000000000000000000                                                           
201739414                         0000000000        00080204025S008066016269S1606174622871047748540000000115010015919               00000000000000000000000000000000000000000000000000000000000000000                                                           
201739414                         0000000000        00080204025S008066016271V1606174907341000902035000000122500273043               00000000000000000000000000000000000000000000000000000000000000000                                                           
201739414                         0000000000        00080204025S008066016273V1606174417704010328702000000051000000309               00000000000000000000000000000000000000000000000000000000000000000                                                           
201739414                         0000000000        00080204025S008066016275V1606174386791060762689000000018000168893               00000000000000000000000000000000000000000000000000000000000000000                                                           
201739414                         0000000000        00099999999 000000000000 0000000000000000000000000000000000000000BBL CARD       00005000000052920000000037000000002405160000000246178000000000000                                                           
201739414                         0000000000        00099999999 000000000000 0000000000000000000000000000000000000000BBL AFFINITY   00000000000000000000000000000000000000000000000000000000000000000                                                           
201739414                         0000000000        00099999999 000000000000 0000000000000000000000000000000000000000VISA CARD      00000000000000000000000000000000000000000000000000000000000000000                                                           
201739414                         0000000000        00099999999 000000000000 0000000000000000000000000000000000000000VISA AFFINITY  00001000000006320000000004400000001143340000000115010000000000000                                                           
201739414                         0000000000        00099999999 000000000000 0000000000000000000000000000000000000000MASTERCARD     00001000000000850000000000600000000154090000000015500000000000000                                                           
201739414                         0000000000        00099999999 000000000000 0000000000000000000000000000000000000000MASTER AFFINITY00000000000000000000000000000000000000000000000000000000000000000                                                           
201739414                         0000000000        00099999999 000000000000 0000000000000000000000000000000000000000JCB CARD       00000000000000000000000000000000000000000000000000000000000000000                                                           
201739414                         0000000000        00099999999 000000000000 0000000000000000000000000000000000000000BSS CARD       00000000000000000000000000000000000000000000000000000000000000000                                                           
201739414                         0000000000        00099999999 000000000000 0000000000000000000000000000000000000000MERCHANT TOTAL 00007000000060090000000042000000003702590000000376688000000000000                                                           
201739463KERRY EXPRESS(MUANGTHONG)101344729517/06/1700000000000 000000000000 0000000000000000000000000000000000000000               00000000000000000000000000000000000000000000000000000171670110711                                                           
201739463                         0000000000        00080212156S010232033262V1606174391370010882617000000253500281794               00000000000000000000000000000000000000000000000000000000000000000                                                           
201739463                         0000000000        00080212156S010232033263S1606174162020022123214000000044500184370               00000000000000000000000000000000000000000000000000000000000000000                                                           
201739463                         0000000000        00099999999 000000000000 0000000000000000000000000000000000000000BBL CARD       00001000000054500000000038200000002476680000000253500000000000000                                                           
201739463                         0000000000        00099999999 000000000000 0000000000000000000000000000000000000000BBL AFFINITY   00000000000000000000000000000000000000000000000000000000000000000                                                           
201739463                         0000000000        00099999999 000000000000 0000000000000000000000000000000000000000VISA CARD      00001000000002440000000001700000000442390000000044500000000000000                                                           
201739463                         0000000000        00099999999 000000000000 0000000000000000000000000000000000000000VISA AFFINITY  00000000000000000000000000000000000000000000000000000000000000000                                                           
201739463                         0000000000        00099999999 000000000000 0000000000000000000000000000000000000000MASTERCARD     00000000000000000000000000000000000000000000000000000000000000000                                                           
201739463                         0000000000        00099999999 000000000000 0000000000000000000000000000000000000000MASTER AFFINITY00000000000000000000000000000000000000000000000000000000000000000                                                           
201739463                         0000000000        00099999999 000000000000 0000000000000000000000000000000000000000JCB CARD       00000000000000000000000000000000000000000000000000000000000000000                                                           
201739463                         0000000000        00099999999 000000000000 0000000000000000000000000000000000000000BSS CARD       00000000000000000000000000000000000000000000000000000000000000000                                                           
201739463                         0000000000        00099999999 000000000000 0000000000000000000000000000000000000000MERCHANT TOTAL 00002000000056940000000039900000002919070000000298000000000000000                                                           
201739471KERRY EXPRESS(MAHACHAI)  101344729517/06/1700000000000 000000000000 0000000000000000000000000000000000000000               00000000000000000000000000000000000000000000000000000171670110711                                                           
201739471                         0000000000        00080244352S014010034005S1606174921418010002030000000163500007987               00000000000000000000000000000000000000000000000000000000000000000                                                           
201739471                         0000000000        00080244352S014010034006V1606174417708800130855000000180000004235               00000000000000000000000000000000000000000000000000000000000000000                                                           
201739471                         0000000000        00080244352S014010034008V1606174050161744147027000000033500001637               00000000000000000000000000000000000000000000000000000000000000000                                                           
201739471                         0000000000        00099999999 000000000000 0000000000000000000000000000000000000000BBL CARD       00002000000045900000000032100000002085890000000213500000000000000                                                           
201739471                         0000000000        00099999999 000000000000 0000000000000000000000000000000000000000BBL AFFINITY   00000000000000000000000000000000000000000000000000000000000000000                                                           
201739471                         0000000000        00099999999 000000000000 0000000000000000000000000000000000000000VISA CARD      00001000000027790000000019500000001605260000000163500000000000000                                                           
201739471                         0000000000        00099999999 000000000000 0000000000000000000000000000000000000000VISA AFFINITY  00000000000000000000000000000000000000000000000000000000000000000                                                           
201739471                         0000000000        00099999999 000000000000 0000000000000000000000000000000000000000MASTERCARD     00000000000000000000000000000000000000000000000000000000000000000                                                           
201739471                         0000000000        00099999999 000000000000 0000000000000000000000000000000000000000MASTER AFFINITY00000000000000000000000000000000000000000000000000000000000000000                                                           
201739471                         0000000000        00099999999 000000000000 0000000000000000000000000000000000000000JCB CARD       00000000000000000000000000000000000000000000000000000000000000000                                                           
201739471                         0000000000        00099999999 000000000000 0000000000000000000000000000000000000000BSS CARD       00000000000000000000000000000000000000000000000000000000000000000                                                           
201739471                         0000000000        00099999999 000000000000 0000000000000000000000000000000000000000MERCHANT TOTAL 00003000000073690000000051600000003691150000000377000000000000000                                                           
201739489KERRY EXPRESS(PAKKREDT)  101344729517/06/1700000000000 000000000000 0000000000000000000000000000000000000000               00000000000000000000000000000000000000000000000000000171670110711                                                           
201739489                         0000000000        00080244353S014011038485S1606174283800853737628000000082500199540               00000000000000000000000000000000000000000000000000000000000000000                                                           
201739489                         0000000000        00080244353S014011038486M1606175404920101395440000000085500300655               00000000000000000000000000000000000000000000000000000000000000000                                                           
201739489                         0000000000        00099999999 000000000000 0000000000000000000000000000000000000000BBL CARD       00000000000000000000000000000000000000000000000000000000000000000                                                           
201739489                         0000000000        00099999999 000000000000 0000000000000000000000000000000000000000BBL AFFINITY   00001000000018380000000012900000000835330000000085500000000000000                                                           
201739489                         0000000000        00099999999 000000000000 0000000000000000000000000000000000000000VISA CARD      00001000000004530000000003200000000820150000000082500000000000000                                                           
201739489                         0000000000        00099999999 000000000000 0000000000000000000000000000000000000000VISA AFFINITY  00000000000000000000000000000000000000000000000000000000000000000                                                           
201739489                         0000000000        00099999999 000000000000 0000000000000000000000000000000000000000MASTERCARD     00000000000000000000000000000000000000000000000000000000000000000                                                           
201739489                         0000000000        00099999999 000000000000 0000000000000000000000000000000000000000MASTER AFFINITY00000000000000000000000000000000000000000000000000000000000000000                                                           
201739489                         0000000000        00099999999 000000000000 0000000000000000000000000000000000000000JCB CARD       00000000000000000000000000000000000000000000000000000000000000000                                                           
201739489                         0000000000        00099999999 000000000000 0000000000000000000000000000000000000000BSS CARD       00000000000000000000000000000000000000000000000000000000000000000                                                           
201739489                         0000000000        00099999999 000000000000 0000000000000000000000000000000000000000MERCHANT TOTAL 00002000000022910000000016100000001655480000000168000000000000000                                                           
201739497KERRY EXPRESS(SECON)     101344729517/06/1700000000000 000000000000 0000000000000000000000000000000000000000               00000000000000000000000000000000000000000000000000000171670110711                                                           
201739497                         0000000000        00080213142S010765039374S1606174283800768875067000000036500189780               00000000000000000000000000000000000000000000000000000000000000000                                                           
201739497                         0000000000        00080213142S010765039375S1606173563420001512980000000026500452005               00000000000000000000000000000000000000000000000000000000000000000                                                           
201739497                         0000000000        00080213142S010765039376S1606174162022201825627000000014000128460               00000000000000000000000000000000000000000000000000000000000000000                                                           
201739497                         0000000000        00080213142S010765039378V1606174417707200818127000000045000001328               00000000000000000000000000000000000000000000000000000000000000000                                                           
201739497                         0000000000        00080213142S010765039380S1606174283800508300517000000016000155780               00000000000000000000000000000000000000000000000000000000000000000                                                           
201739497                         0000000000        00080213142S010765039382V1606174543250000661154000000031000613845               00000000000000000000000000000000000000000000000000000000000000000                                                           
201739497                         0000000000        00099999999 000000000000 0000000000000000000000000000000000000000BBL CARD       00002000000016340000000011400000000742520000000076000000000000000                                                           
201739497                         0000000000        00099999999 000000000000 0000000000000000000000000000000000000000BBL AFFINITY   00000000000000000000000000000000000000000000000000000000000000000                                                           
201739497                         0000000000        00099999999 000000000000 0000000000000000000000000000000000000000VISA CARD      00003000000003650000000002600000000661090000000066500000000000000                                                           
201739497                         0000000000        00099999999 000000000000 0000000000000000000000000000000000000000VISA AFFINITY  00000000000000000000000000000000000000000000000000000000000000000                                                           
201739497                         0000000000        00099999999 000000000000 0000000000000000000000000000000000000000MASTERCARD     00000000000000000000000000000000000000000000000000000000000000000                                                           
201739497                         0000000000        00099999999 000000000000 0000000000000000000000000000000000000000MASTER AFFINITY00000000000000000000000000000000000000000000000000000000000000000                                                           
201739497                         0000000000        00099999999 000000000000 0000000000000000000000000000000000000000JCB CARD       00001000000007420000000005200000000257060000000026500000000000000                                                           
201739497                         0000000000        00099999999 000000000000 0000000000000000000000000000000000000000BSS CARD       00000000000000000000000000000000000000000000000000000000000000000                                                           
201739497                         0000000000        00099999999 000000000000 0000000000000000000000000000000000000000MERCHANT TOTAL 00006000000027410000000019200000001660670000000169000000000000000                                                           
201776994KERRY EXPRESS(BANGKAE)   101344729517/06/1700000000000 000000000000 0000000000000000000000000000000000000000               00000000000000000000000000000000000000000000000000000171670110711                                                           
201776994                         0000000000        00080215168S011331008112S1606174921418002185504000000031000000088               00000000000000000000000000000000000000000000000000000000000000000                                                           
201776994                         0000000000        00080215168S011331008113S1606174162020417440926000000019500127520               00000000000000000000000000000000000000000000000000000000000000000                                                           
201776994                         0000000000        00080215168S011331008115V1606174377503830264107000000424780001571               00000000000000000000000000000000000000000000000000000000000000000                                                           
201776994                         0000000000        00080215168S011331008117S1606174162020413556253000000011500180460               00000000000000000000000000000000000000000000000000000000000000000                                                           
201776994                         0000000000        00080215168S011331008119S1606174265797707953124000000145500152479               00000000000000000000000000000000000000000000000000000000000000000                                                           
201776994                         0000000000        00080215168S011331008121V1606174417704008862803000000031500006795               00000000000000000000000000000000000000000000000000000000000000000                                                           
201776994                         0000000000        00080215168S011331008122S1606174921418002185504000000088500007587               00000000000000000000000000000000000000000000000000000000000000000                                                           
201776994                         0000000000        00080215168S011331008124S1606174162020027164122000000010000161430               00000000000000000000000000000000000000000000000000000000000000000                                                           
201776994                         0000000000        00080215168S011331008126V1606174386798041631792000000050000055998               00000000000000000000000000000000000000000000000000000000000000000                                                           
201776994                         0000000000        00080215168S011331008128S1606174162020026133516000000369442136890               00000000000000000000000000000000000000000000000000000000000000000                                                           
201776994                         0000000000        00099999999 000000000000 0000000000000000000000000000000000000000BBL CARD       00003000000108850000000076200000004946330000000506280000000000000                                                           
201776994                         0000000000        00099999999 000000000000 0000000000000000000000000000000000000000BBL AFFINITY   00000000000000000000000000000000000000000000000000000000000000000                                                           
201776994                         0000000000        00099999999 000000000000 0000000000000000000000000000000000000000VISA CARD      00007000000050890000000035600000006699970000000675442000000000000                                                           
201776994                         0000000000        00099999999 000000000000 0000000000000000000000000000000000000000VISA AFFINITY  00000000000000000000000000000000000000000000000000000000000000000                                                           
201776994                         0000000000        00099999999 000000000000 0000000000000000000000000000000000000000MASTERCARD     00000000000000000000000000000000000000000000000000000000000000000                                                           
201776994                         0000000000        00099999999 000000000000 0000000000000000000000000000000000000000MASTER AFFINITY00000000000000000000000000000000000000000000000000000000000000000                                                           
201776994                         0000000000        00099999999 000000000000 0000000000000000000000000000000000000000JCB CARD       00000000000000000000000000000000000000000000000000000000000000000                                                           
201776994                         0000000000        00099999999 000000000000 0000000000000000000000000000000000000000BSS CARD       00000000000000000000000000000000000000000000000000000000000000000                                                           
201776994                         0000000000        00099999999 000000000000 0000000000000000000000000000000000000000MERCHANT TOTAL 00010000000159740000000111800000011646300000001181722000000000000                                                           
201777000KERRY EXPRESS(BANGBUATHON101344729517/06/1700000000000 000000000000 0000000000000000000000000000000000000000               00000000000000000000000000000000000000000000000000000171670110711                                                           
201777000                         0000000000        00080213874S010970019328S1606175124920002964285000000067000921505               00000000000000000000000000000000000000000000000000000000000000000                                                           
201777000                         0000000000        00080213874S010970019329S1606174162020400874073000000056000102890               00000000000000000000000000000000000000000000000000000000000000000                                                           
201777000                         0000000000        00080213874S010970019331S1606174546329084024112000000111300008164               00000000000000000000000000000000000000000000000000000000000000000                                                           
201777000                         0000000000        00080213874S010970019333S1606174162020808006864000000044500109300               00000000000000000000000000000000000000000000000000000000000000000                                                           
201777000                         0000000000        00080213874S010970019335S1606174162020028537847000000145500131380               00000000000000000000000000000000000000000000000000000000000000000                                                           
201777000                         0000000000        00080213874S010970019338S1606174162020028537847000000517324112060               00000000000000000000000000000000000000000000000000000000000000000                                                           
201777000                         0000000000        00080213874S010970019340S1606174162020808006864000000152000128320               00000000000000000000000000000000000000000000000000000000000000000                                                           
201777000                         0000000000        00080213874S010970019342S1606175577555122269652000000091500022985               00000000000000000000000000000000000000000000000000000000000000000                                                           
201777000                         0000000000        00099901287S000161000001B160617000008880198510700000002400000014F               00000000000000000000000000000000000000000000000000000000000000000                                                           
201777000                         0000000000        00099999999 000000000000 0000000000000000000000000000000000000000BBL CARD       00000000000000000000000000000000000000000000000000000000000000000                                                           
201777000                         0000000000        00099999999 000000000000 0000000000000000000000000000000000000000BBL AFFINITY   00000000000000000000000000000000000000000000000000000000000000000                                                           
201777000                         0000000000        00099999999 000000000000 0000000000000000000000000000000000000000VISA CARD      00005000000050340000000035200000009099380000000915324000000000000                                                           
201777000                         0000000000        00099999999 000000000000 0000000000000000000000000000000000000000VISA AFFINITY  00001000000018920000000013200000001092760000000111300000000000000                                                           
201777000                         0000000000        00099999999 000000000000 0000000000000000000000000000000000000000MASTERCARD     00002000000016420000000011500000001567430000000158500000000000000                                                           
201777000                         0000000000        00099999999 000000000000 0000000000000000000000000000000000000000MASTER AFFINITY00000000000000000000000000000000000000000000000000000000000000000                                                           
201777000                         0000000000        00099999999 000000000000 0000000000000000000000000000000000000000JCB CARD       00000000000000000000000000000000000000000000000000000000000000000                                                           
201777000                         0000000000        00099999999 000000000000 0000000000000000000000000000000000000000BSS CARD       00001000000003840000000002700000000235890000000024000000000000000                                                           
201777000                         0000000000        00099999999 000000000000 0000000000000000000000000000000000000000MERCHANT TOTAL 00009000000089520000000062600000011995460000001209124000000000000                                                           
201778099KERRY EXPRESS(HAPPYLAND) 101344729517/06/1700000000000 000000000000 0000000000000000000000000000000000000000               00000000000000000000000000000000000000000000000000000171670110711                                                           
201778099                         0000000000        00080205079S008326037341S1606174283800093376203000000060500172320               00000000000000000000000000000000000000000000000000000000000000000                                                           
201778099                         0000000000        00080205079S008326037342S1606174162020016472023000000057000145730               00000000000000000000000000000000000000000000000000000000000000000                                                           
201778099                         0000000000        00080205079S008326037343S1606174283800851759475000000031000134360               00000000000000000000000000000000000000000000000000000000000000000                                                           
201778099                         0000000000        00080205079S008326037345V1606174943517655925217000000159000009567               00000000000000000000000000000000000000000000000000000000000000000                                                           
201778099                         0000000000        00099999999 000000000000 0000000000000000000000000000000000000000BBL CARD       00001000000034180000000023900000001553430000000159000000000000000                                                           
201778099                         0000000000        00099999999 000000000000 0000000000000000000000000000000000000000BBL AFFINITY   00000000000000000000000000000000000000000000000000000000000000000                                                           
201778099                         0000000000        00099999999 000000000000 0000000000000000000000000000000000000000VISA CARD      00003000000008160000000005700000001476270000000148500000000000000                                                           
201778099                         0000000000        00099999999 000000000000 0000000000000000000000000000000000000000VISA AFFINITY  00000000000000000000000000000000000000000000000000000000000000000                                                           
201778099                         0000000000        00099999999 000000000000 0000000000000000000000000000000000000000MASTERCARD     00000000000000000000000000000000000000000000000000000000000000000                                                           
201778099                         0000000000        00099999999 000000000000 0000000000000000000000000000000000000000MASTER AFFINITY00000000000000000000000000000000000000000000000000000000000000000                                                           
201778099                         0000000000        00099999999 000000000000 0000000000000000000000000000000000000000JCB CARD       00000000000000000000000000000000000000000000000000000000000000000                                                           
201778099                         0000000000        00099999999 000000000000 0000000000000000000000000000000000000000BSS CARD       00000000000000000000000000000000000000000000000000000000000000000                                                           
201778099                         0000000000        00099999999 000000000000 0000000000000000000000000000000000000000MERCHANT TOTAL 00004000000042340000000029600000003029700000000307500000000000000                                                           
201789005KERRY EXPRESS(THANAMNON) 101344729517/06/1700000000000 000000000000 0000000000000000000000000000000000000000               00000000000000000000000000000000000000000000000000000171670110711                                                           
201789005                         0000000000        00080245201S014248001353S1606174622871056363199000000031320021374               00000000000000000000000000000000000000000000000000000000000000000                                                           
201789005                         0000000000        00080245201S014248001354V1606174386791061036901000000033650024497               00000000000000000000000000000000000000000000000000000000000000000                                                           
201789005                         0000000000        00080245201S014248001356S1606174162020801225792000000466400182560               00000000000000000000000000000000000000000000000000000000000000000                                                           
201789005                         0000000000        00080245201S014248001358S1606174162020801225792000000257600187980               00000000000000000000000000000000000000000000000000000000000000000                                                           
201789005                         0000000000        00099999999 000000000000 0000000000000000000000000000000000000000BBL CARD       00001000000007230000000005100000000328760000000033650000000000000                                                           
201789005                         0000000000        00099999999 000000000000 0000000000000000000000000000000000000000BBL AFFINITY   00000000000000000000000000000000000000000000000000000000000000000                                                           
201789005                         0000000000        00099999999 000000000000 0000000000000000000000000000000000000000VISA CARD      00002000000039820000000027900000007197390000000724000000000000000                                                           
201789005                         0000000000        00099999999 000000000000 0000000000000000000000000000000000000000VISA AFFINITY  00001000000001720000000001200000000311360000000031320000000000000                                                           
201789005                         0000000000        00099999999 000000000000 0000000000000000000000000000000000000000MASTERCARD     00000000000000000000000000000000000000000000000000000000000000000                                                           
201789005                         0000000000        00099999999 000000000000 0000000000000000000000000000000000000000MASTER AFFINITY00000000000000000000000000000000000000000000000000000000000000000                                                           
201789005                         0000000000        00099999999 000000000000 0000000000000000000000000000000000000000JCB CARD       00000000000000000000000000000000000000000000000000000000000000000                                                           
201789005                         0000000000        00099999999 000000000000 0000000000000000000000000000000000000000BSS CARD       00000000000000000000000000000000000000000000000000000000000000000                                                           
201789005                         0000000000        00099999999 000000000000 0000000000000000000000000000000000000000MERCHANT TOTAL 00004000000048770000000034200000007837510000000788970000000000000                                                           
201789609KERRY EXPRESS(RONGMUANG) 101344729517/06/1700000000000 000000000000 0000000000000000000000000000000000000000               00000000000000000000000000000000000000000000000000000171670110711                                                           
201789609                         0000000000        00080245214S014252001562S1606174505809000061933000000132000003100               00000000000000000000000000000000000000000000000000000000000000000                                                           
201789609                         0000000000        00080245214S014252001563V1606174773760107665347000000417070541747               00000000000000000000000000000000000000000000000000000000000000000                                                           
201789609                         0000000000        00080245214S014252001565S1606174622871039866433000000009170028593               00000000000000000000000000000000000000000000000000000000000000000                                                           
201789609                         0000000000        00099901380S000019000001B1606170000088000528361000000009000000118               00000000000000000000000000000000000000000000000000000000000000000                                                           
201789609                         0000000000        00099901380R000019000002B1606170000088000528361000000009000000119               00000000000000000000000000000000000000000000000000000000000000000                                                           
201789609                         0000000000        00099901380S000019000003B160617000008800052836100000000900000011A               00000000000000000000000000000000000000000000000000000000000000000                                                           
201789609                         0000000000        00099901380S000019000004B160617000008800052836100000003700000011B               00000000000000000000000000000000000000000000000000000000000000000                                                           
201789609                         0000000000        00099901380R000019000005B160617000008800052836100000003700000011C               00000000000000000000000000000000000000000000000000000000000000000                                                           
201789609                         0000000000        00099901380S000019000006B160617000008800052836100000003700000011D               00000000000000000000000000000000000000000000000000000000000000000                                                           
201789609                         0000000000        00099999999 000000000000 0000000000000000000000000000000000000000BBL CARD       00001000000089670000000062800000004074750000000417070000000000000                                                           
201789609                         0000000000        00099999999 000000000000 0000000000000000000000000000000000000000BBL AFFINITY   00000000000000000000000000000000000000000000000000000000000000000                                                           
201789609                         0000000000        00099999999 000000000000 0000000000000000000000000000000000000000VISA CARD      00001000000022440000000015700000001295990000000132000000000000000                                                           
201789609                         0000000000        00099999999 000000000000 0000000000000000000000000000000000000000VISA AFFINITY  00001000000000500000000000400000000091160000000009170000000000000                                                           
201789609                         0000000000        00099999999 000000000000 0000000000000000000000000000000000000000MASTERCARD     00000000000000000000000000000000000000000000000000000000000000000                                                           
201789609                         0000000000        00099999999 000000000000 0000000000000000000000000000000000000000MASTER AFFINITY00000000000000000000000000000000000000000000000000000000000000000                                                           
201789609                         0000000000        00099999999 000000000000 0000000000000000000000000000000000000000JCB CARD       00000000000000000000000000000000000000000000000000000000000000000                                                           
201789609                         0000000000        00099999999 000000000000 0000000000000000000000000000000000000000BSS CARD       00006000000007360000000005200000000452120000000046000000000000000                                                           
201789609                         0000000000        00099999999 000000000000 0000000000000000000000000000000000000000MERCHANT TOTAL 00009000000119970000000084100000005914020000000604240000000000000                                                           
201789625KERRY EXPRESS(LADPRAO)   101344729517/06/1700000000000 000000000000 0000000000000000000000000000000000000000               00000000000000000000000000000000000000000000000000000171670110711                                                           
201789625                         0000000000        00080245215S014253031366S1606174283802200883501000000038500195320               00000000000000000000000000000000000000000000000000000000000000000                                                           
201789625                         0000000000        00099999999 000000000000 0000000000000000000000000000000000000000BBL CARD       00000000000000000000000000000000000000000000000000000000000000000                                                           
201789625                         0000000000        00099999999 000000000000 0000000000000000000000000000000000000000BBL AFFINITY   00000000000000000000000000000000000000000000000000000000000000000                                                           
201789625                         0000000000        00099999999 000000000000 0000000000000000000000000000000000000000VISA CARD      00001000000002110000000001500000000382740000000038500000000000000                                                           
201789625                         0000000000        00099999999 000000000000 0000000000000000000000000000000000000000VISA AFFINITY  00000000000000000000000000000000000000000000000000000000000000000                                                           
201789625                         0000000000        00099999999 000000000000 0000000000000000000000000000000000000000MASTERCARD     00000000000000000000000000000000000000000000000000000000000000000                                                           
201789625                         0000000000        00099999999 000000000000 0000000000000000000000000000000000000000MASTER AFFINITY00000000000000000000000000000000000000000000000000000000000000000                                                           
201789625                         0000000000        00099999999 000000000000 0000000000000000000000000000000000000000JCB CARD       00000000000000000000000000000000000000000000000000000000000000000                                                           
201789625                         0000000000        00099999999 000000000000 0000000000000000000000000000000000000000BSS CARD       00000000000000000000000000000000000000000000000000000000000000000                                                           
201789625                         0000000000        00099999999 000000000000 0000000000000000000000000000000000000000MERCHANT TOTAL 00001000000002110000000001500000000382740000000038500000000000000                                                           
201789724KERRY EXPRESS(SAIMAI)    101344729517/06/1700000000000 000000000000 0000000000000000000000000000000000000000               00000000000000000000000000000000000000000000000000000171670110711                                                           
201789724                         0000000000        00080203655S007946025953V1606174773760900634409000000011500341956               00000000000000000000000000000000000000000000000000000000000000000                                                           
201789724                         0000000000        00080203655S007946025954M1606175404920101500742000000031000737515               00000000000000000000000000000000000000000000000000000000000000000                                                           
201789724                         0000000000        00080203655S007946025956S1606175577552998923280000000033720051090               00000000000000000000000000000000000000000000000000000000000000000                                                           
201789724                         0000000000        00080203655S007946025958S1606174907341203797026000000118000474742               00000000000000000000000000000000000000000000000000000000000000000                                                           
201789724                         0000000000        00080203655S007946025959M1606175407167418417429000000097000099250               00000000000000000000000000000000000000000000000000000000000000000                                                           
201789724                         0000000000        00080203655S007946025961S1606174215839072457660000000004500135951               00000000000000000000000000000000000000000000000000000000000000000                                                           
201789724                         0000000000        00080203655S007946025963V1606174543250000846433000000041000090495               00000000000000000000000000000000000000000000000000000000000000000                                                           
201789724                         0000000000        00080203655S007946025964S1606174090610152288907000000023000124583               00000000000000000000000000000000000000000000000000000000000000000                                                           
201789724                         0000000000        00080203655S007946025966S1606174283800854320424000000042000185570               00000000000000000000000000000000000000000000000000000000000000000                                                           
201789724                         0000000000        00099999999 000000000000 0000000000000000000000000000000000000000BBL CARD       00002000000011280000000007900000000512930000000052500000000000000                                                           
201789724                         0000000000        00099999999 000000000000 0000000000000000000000000000000000000000BBL AFFINITY   00002000000027520000000019300000001250550000000128000000000000000                                                           
201789724                         0000000000        00099999999 000000000000 0000000000000000000000000000000000000000VISA CARD      00004000000026520000000018600000001846620000000187500000000000000                                                           
201789724                         0000000000        00099999999 000000000000 0000000000000000000000000000000000000000VISA AFFINITY  00000000000000000000000000000000000000000000000000000000000000000                                                           
201789724                         0000000000        00099999999 000000000000 0000000000000000000000000000000000000000MASTERCARD     00001000000001850000000001300000000335220000000033720000000000000                                                           
201789724                         0000000000        00099999999 000000000000 0000000000000000000000000000000000000000MASTER AFFINITY00000000000000000000000000000000000000000000000000000000000000000                                                           
201789724                         0000000000        00099999999 000000000000 0000000000000000000000000000000000000000JCB CARD       00000000000000000000000000000000000000000000000000000000000000000                                                           
201789724                         0000000000        00099999999 000000000000 0000000000000000000000000000000000000000BSS CARD       00000000000000000000000000000000000000000000000000000000000000000                                                           
201789724                         0000000000        00099999999 000000000000 0000000000000000000000000000000000000000MERCHANT TOTAL 00009000000067170000000047100000003945320000000401720000000000000                                                           
201789732KERRY EXPRESS(BANGBON)   101344729517/06/1700000000000 000000000000 0000000000000000000000000000000000000000               00000000000000000000000000000000000000000000000000000171670110711                                                           
201789732                         0000000000        00080204112S008079043857M1606175149504002119750000000045500R94175               00000000000000000000000000000000000000000000000000000000000000000                                                           
201789732                         0000000000        00080204112S008079043858S1606174162020022449395000000028000188170               00000000000000000000000000000000000000000000000000000000000000000                                                           
201789732                         0000000000        00080204112S008079043860S1606175577555134903496000000070870018101               00000000000000000000000000000000000000000000000000000000000000000                                                           
201789732                         0000000000        00080204112S008079043862V1606174773760901851325000000085100605944               00000000000000000000000000000000000000000000000000000000000000000                                                           
201789732                         0000000000        00080204112S008079043864S1606174730140063336211000000126660004215               00000000000000000000000000000000000000000000000000000000000000000                                                           
201789732                         0000000000        00080204112S008079043866S1606174622881027194086000000095700017304               00000000000000000000000000000000000000000000000000000000000000000                                                           
201789732                         0000000000        00080204112S008079043868S1606174162020417186792000000095500188780               00000000000000000000000000000000000000000000000000000000000000000                                                           
201789732                         0000000000        00080204112S008079043869S1606174921412902234843000000055000000290               00000000000000000000000000000000000000000000000000000000000000000                                                           
201789732                         0000000000        00080204112S008079043872M1606175149504002119750000000008500R01879               00000000000000000000000000000000000000000000000000000000000000000                                                           
201789732                         0000000000        00080204112S008079043874S1606175404740001552167000000031000R09908               00000000000000000000000000000000000000000000000000000000000000000                                                           
201789732                         0000000000        00080204112S008079043876S1606174730140063336211000000221357009050               00000000000000000000000000000000000000000000000000000000000000000                                                           
201789732                         0000000000        00080204112S008079043878S1606175577555124130431000000056880006175               00000000000000000000000000000000000000000000000000000000000000000                                                           
201789732                         0000000000        00080204112S008079043880S1606174505809000061933000000008500001617               00000000000000000000000000000000000000000000000000000000000000000                                                           
201789732                         0000000000        00099901405S000209000001B16061700000880027804210000000110000001A4               00000000000000000000000000000000000000000000000000000000000000000                                                           
201789732                         0000000000        00099999999 000000000000 0000000000000000000000000000000000000000BBL CARD       00001000000018290000000012800000000831430000000085100000000000000                                                           
201789732                         0000000000        00099999999 000000000000 0000000000000000000000000000000000000000BBL AFFINITY   00002000000011610000000008100000000527580000000054000000000000000                                                           
201789732                         0000000000        00099999999 000000000000 0000000000000000000000000000000000000000VISA CARD      00006000000076740000000053700000005268060000000535017000000000000                                                           
201789732                         0000000000        00099999999 000000000000 0000000000000000000000000000000000000000VISA AFFINITY  00001000000005260000000003700000000951370000000095700000000000000                                                           
201789732                         0000000000        00099999999 000000000000 0000000000000000000000000000000000000000MASTERCARD     00003000000012290000000008600000001574350000000158750000000000000                                                           
201789732                         0000000000        00099999999 000000000000 0000000000000000000000000000000000000000MASTER AFFINITY00000000000000000000000000000000000000000000000000000000000000000                                                           
201789732                         0000000000        00099999999 000000000000 0000000000000000000000000000000000000000JCB CARD       00000000000000000000000000000000000000000000000000000000000000000                                                           
201789732                         0000000000        00099999999 000000000000 0000000000000000000000000000000000000000BSS CARD       00001000000001760000000001200000000108120000000011000000000000000                                                           
201789732                         0000000000        00099999999 000000000000 0000000000000000000000000000000000000000MERCHANT TOTAL 00014000000125950000000088100000009260910000000939567000000000000                                                           
201823283KERRY EXPRESS(RANGSIT MAR101344729517/06/1700000000000 000000000000 0000000000000000000000000000000000000000               00000000000000000000000000000000000000000000000000000171670110711                                                           
201823283                         0000000000        00080267159S019455000738S1606174730140051607417000000061500007202               00000000000000000000000000000000000000000000000000000000000000000                                                           
201823283                         0000000000        00080267159S019455000740V1606174417708801103067000000031000008245               00000000000000000000000000000000000000000000000000000000000000000                                                           
201823283                         0000000000        00080267159S019455000745S1606174162020400088955000000025500149660               00000000000000000000000000000000000000000000000000000000000000000                                                           
201823283                         0000000000        00099999999 000000000000 0000000000000000000000000000000000000000BBL CARD       00001000000006660000000004700000000302870000000031000000000000000                                                           
201823283                         0000000000        00099999999 000000000000 0000000000000000000000000000000000000000BBL AFFINITY   00000000000000000000000000000000000000000000000000000000000000000                                                           
201823283                         0000000000        00099999999 000000000000 0000000000000000000000000000000000000000VISA CARD      00002000000011850000000008300000000857320000000087000000000000000                                                           
201823283                         0000000000        00099999999 000000000000 0000000000000000000000000000000000000000VISA AFFINITY  00000000000000000000000000000000000000000000000000000000000000000                                                           
201823283                         0000000000        00099999999 000000000000 0000000000000000000000000000000000000000MASTERCARD     00000000000000000000000000000000000000000000000000000000000000000                                                           
201823283                         0000000000        00099999999 000000000000 0000000000000000000000000000000000000000MASTER AFFINITY00000000000000000000000000000000000000000000000000000000000000000                                                           
201823283                         0000000000        00099999999 000000000000 0000000000000000000000000000000000000000JCB CARD       00000000000000000000000000000000000000000000000000000000000000000                                                           
201823283                         0000000000        00099999999 000000000000 0000000000000000000000000000000000000000BSS CARD       00000000000000000000000000000000000000000000000000000000000000000                                                           
201823283                         0000000000        00099999999 000000000000 0000000000000000000000000000000000000000MERCHANT TOTAL 00003000000018510000000013000000001160190000000118000000000000000                                                           
201823291KERRY EXPRESS(SUKSAWAT)  101344729517/06/1700000000000 000000000000 0000000000000000000000000000000000000000               00000000000000000000000000000000000000000000000000000171670110711                                                           
201823291                         0000000000        00080207965S008909041800S1606175229859273077118000000099570R78237               00000000000000000000000000000000000000000000000000000000000000000                                                           
201823291                         0000000000        00080207965S008909041801S1606174546320298489142000000102540007205               00000000000000000000000000000000000000000000000000000000000000000                                                           
201823291                         0000000000        00080207965S008909041803S1606174567240707933924000000008500174710               00000000000000000000000000000000000000000000000000000000000000000                                                           
201823291                         0000000000        00080207965S008909041805V1606174773760107708600000000486777520642               00000000000000000000000000000000000000000000000000000000000000000                                                           
201823291                         0000000000        00080207965S008909041807S1606174283800093239237000000039500188910               00000000000000000000000000000000000000000000000000000000000000000                                                           
201823291                         0000000000        00080207965S008909041809V1606174033754010325939000000036500001038               00000000000000000000000000000000000000000000000000000000000000000                                                           
201823291                         0000000000        00080207965S008909041810S1606174543252090848675000000052500651217               00000000000000000000000000000000000000000000000000000000000000000                                                           
201823291                         0000000000        00080207965S008909041812V1606174921426800123668000000172940007600               00000000000000000000000000000000000000000000000000000000000000000                                                           
201823291                         0000000000        00080207965S008909041814S1606173563420000838691000000020500745817               00000000000000000000000000000000000000000000000000000000000000000                                                           
201823291                         0000000000        00080207965S008909041816V1606174784488003688372000000439470001975               00000000000000000000000000000000000000000000000000000000000000000                                                           
201823291                         0000000000        00080207965S008909041818S1606174162020409479585000000012500121170               00000000000000000000000000000000000000000000000000000000000000000                                                           
201823291                         0000000000        00080207965S008909041820S1606174162020033648134000000158140143140               00000000000000000000000000000000000000000000000000000000000000000                                                           
201823291                         0000000000        00080207965S008909041822S1606174622871038623181000000236700028435               00000000000000000000000000000000000000000000000000000000000000000                                                           
201823291                         0000000000        00080207965S008909041824V1606174417704009256997000000078447006088               00000000000000000000000000000000000000000000000000000000000000000                                                           
201823291                         0000000000        00099901420S000278000001B16061700000880001415460000000080000001FA               00000000000000000000000000000000000000000000000000000000000000000                                                           
201823291                         0000000000        00099999999 000000000000 0000000000000000000000000000000000000000BBL CARD       00005000000261030000000182700000011862040000001214134000000000000                                                           
201823291                         0000000000        00099999999 000000000000 0000000000000000000000000000000000000000BBL AFFINITY   00000000000000000000000000000000000000000000000000000000000000000                                                           
201823291                         0000000000        00099999999 000000000000 0000000000000000000000000000000000000000VISA CARD      00006000000039350000000027500000003694700000000373680000000000000                                                           
201823291                         0000000000        00099999999 000000000000 0000000000000000000000000000000000000000VISA AFFINITY  00001000000013010000000009100000002353080000000236700000000000000                                                           
201823291                         0000000000        00099999999 000000000000 0000000000000000000000000000000000000000MASTERCARD     00000000000000000000000000000000000000000000000000000000000000000                                                           
201823291                         0000000000        00099999999 000000000000 0000000000000000000000000000000000000000MASTER AFFINITY00001000000016920000000011800000000977600000000099570000000000000                                                           
201823291                         0000000000        00099999999 000000000000 0000000000000000000000000000000000000000JCB CARD       00001000000005740000000004000000000198860000000020500000000000000                                                           
201823291                         0000000000        00099999999 000000000000 0000000000000000000000000000000000000000BSS CARD       00001000000001280000000000900000000078630000000008000000000000000                                                           
201823291                         0000000000        00099999999 000000000000 0000000000000000000000000000000000000000MERCHANT TOTAL 00015000000337330000000236000000019164910000001952584000000000000                                                           
201823432KERRY EXPRESS-DONMUANG   101344729517/06/1700000000000 000000000000 0000000000000000000000000000000000000000               00000000000000000000000000000000000000000000000000000171670110711                                                           
201823432                         0000000000        00080206759S008613018981V1606174050161657214012000000063000002625               00000000000000000000000000000000000000000000000000000000000000000                                                           
201823432                         0000000000        00080206759S008613018982V1606174050161657214012000000079000006192               00000000000000000000000000000000000000000000000000000000000000000                                                           
201823432                         0000000000        00099999999 000000000000 0000000000000000000000000000000000000000BBL CARD       00002000000030530000000021400000001387330000000142000000000000000                                                           
201823432                         0000000000        00099999999 000000000000 0000000000000000000000000000000000000000BBL AFFINITY   00000000000000000000000000000000000000000000000000000000000000000                                                           
201823432                         0000000000        00099999999 000000000000 0000000000000000000000000000000000000000VISA CARD      00000000000000000000000000000000000000000000000000000000000000000                                                           
201823432                         0000000000        00099999999 000000000000 0000000000000000000000000000000000000000VISA AFFINITY  00000000000000000000000000000000000000000000000000000000000000000                                                           
201823432                         0000000000        00099999999 000000000000 0000000000000000000000000000000000000000MASTERCARD     00000000000000000000000000000000000000000000000000000000000000000                                                           
201823432                         0000000000        00099999999 000000000000 0000000000000000000000000000000000000000MASTER AFFINITY00000000000000000000000000000000000000000000000000000000000000000                                                           
201823432                         0000000000        00099999999 000000000000 0000000000000000000000000000000000000000JCB CARD       00000000000000000000000000000000000000000000000000000000000000000                                                           
201823432                         0000000000        00099999999 000000000000 0000000000000000000000000000000000000000BSS CARD       00000000000000000000000000000000000000000000000000000000000000000                                                           
201823432                         0000000000        00099999999 000000000000 0000000000000000000000000000000000000000MERCHANT TOTAL 00002000000030530000000021400000001387330000000142000000000000000                                                           
201823481KERRY EXPRESS(NAWANAKORN)101344729517/06/1700000000000 000000000000 0000000000000000000000000000000000000000               00000000000000000000000000000000000000000000000000000171670110711                                                           
201823481                         0000000000        00080204966S008310038056M1606175414963708228745000000025700836751               00000000000000000000000000000000000000000000000000000000000000000                                                           
201823481                         0000000000        00080204966S008310038057S1606174283800780437367000000027000158380               00000000000000000000000000000000000000000000000000000000000000000                                                           
201823481                         0000000000        00080204966S008310038059M1606175404321000064916000000355000335031               00000000000000000000000000000000000000000000000000000000000000000                                                           
201823481                         0000000000        00080204966S008310038060M1606175404321000064916000000335320761279               00000000000000000000000000000000000000000000000000000000000000000                                                           
201823481                         0000000000        00080204966S008310038062M1606175404321000064916000000086000034379               00000000000000000000000000000000000000000000000000000000000000000                                                           
201823481                         0000000000        00080204966S008310038064M1606175404321000064916000000137344949941               00000000000000000000000000000000000000000000000000000000000000000                                                           
201823481                         0000000000        00080204966S008310038066S1606174162020411031382000000081000112990               00000000000000000000000000000000000000000000000000000000000000000                                                           
201823481                         0000000000        00099999999 000000000000 0000000000000000000000000000000000000000BBL CARD       00000000000000000000000000000000000000000000000000000000000000000                                                           
201823481                         0000000000        00099999999 000000000000 0000000000000000000000000000000000000000BBL AFFINITY   00005000000201960000000141400000009177540000000939364000000000000                                                           
201823481                         0000000000        00099999999 000000000000 0000000000000000000000000000000000000000VISA CARD      00002000000005940000000004200000001073640000000108000000000000000                                                           
201823481                         0000000000        00099999999 000000000000 0000000000000000000000000000000000000000VISA AFFINITY  00000000000000000000000000000000000000000000000000000000000000000                                                           
201823481                         0000000000        00099999999 000000000000 0000000000000000000000000000000000000000MASTERCARD     00000000000000000000000000000000000000000000000000000000000000000                                                           
201823481                         0000000000        00099999999 000000000000 0000000000000000000000000000000000000000MASTER AFFINITY00000000000000000000000000000000000000000000000000000000000000000                                                           
201823481                         0000000000        00099999999 000000000000 0000000000000000000000000000000000000000JCB CARD       00000000000000000000000000000000000000000000000000000000000000000                                                           
201823481                         0000000000        00099999999 000000000000 0000000000000000000000000000000000000000BSS CARD       00000000000000000000000000000000000000000000000000000000000000000                                                           
201823481                         0000000000        00099999999 000000000000 0000000000000000000000000000000000000000MERCHANT TOTAL 00007000000207900000000145600000010251180000001047364000000000000                                                           
201823499KERRY EXPRESS(ONNUT)     101344729517/06/1700000000000 000000000000 0000000000000000000000000000000000000000               00000000000000000000000000000000000000000000000000000171670110711                                                           
201823499                         0000000000        00080200671S007227039230V1606174093381180354874000000067500005654               00000000000000000000000000000000000000000000000000000000000000000                                                           
201823499                         0000000000        00080200671S007227039233S1606174162020403627429000000087300114280               00000000000000000000000000000000000000000000000000000000000000000                                                           
201823499                         0000000000        00080200671S007227039235S1606174162020015846581000000087520169330               00000000000000000000000000000000000000000000000000000000000000000                                                           
201823499                         0000000000        00080200671S007227039238V1606174377503830289971000000632670003512               00000000000000000000000000000000000000000000000000000000000000000                                                           
201823499                         0000000000        00080200671S007228039244S1606174162020408300808000000204500113860               00000000000000000000000000000000000000000000000000000000000000000                                                           
201823499                         0000000000        00080200671S007229039248S1606174162020408300808000000006000174090               00000000000000000000000000000000000000000000000000000000000000000                                                           
201823499                         0000000000        00099901425S000331000001B1606170000088500104087000000006500000464               00000000000000000000000000000000000000000000000000000000000000000                                                           
201823499                         0000000000        00099901425S000331000002B1606170000088000327495000000036120000465               00000000000000000000000000000000000000000000000000000000000000000                                                           
201823499                         0000000000        00099901425S000331000003B1606170000088500104087000000006500000466               00000000000000000000000000000000000000000000000000000000000000000                                                           
201823499                         0000000000        00099999999 000000000000 0000000000000000000000000000000000000000BBL CARD       00002000000150530000000105400000006840630000000700170000000000000                                                           
201823499                         0000000000        00099999999 000000000000 0000000000000000000000000000000000000000BBL AFFINITY   00000000000000000000000000000000000000000000000000000000000000000                                                           
201823499                         0000000000        00099999999 000000000000 0000000000000000000000000000000000000000VISA CARD      00004000000021190000000014800000003830530000000385320000000000000                                                           
201823499                         0000000000        00099999999 000000000000 0000000000000000000000000000000000000000VISA AFFINITY  00000000000000000000000000000000000000000000000000000000000000000                                                           
201823499                         0000000000        00099999999 000000000000 0000000000000000000000000000000000000000MASTERCARD     00000000000000000000000000000000000000000000000000000000000000000                                                           
201823499                         0000000000        00099999999 000000000000 0000000000000000000000000000000000000000MASTER AFFINITY00000000000000000000000000000000000000000000000000000000000000000                                                           
201823499                         0000000000        00099999999 000000000000 0000000000000000000000000000000000000000JCB CARD       00000000000000000000000000000000000000000000000000000000000000000                                                           
201823499                         0000000000        00099999999 000000000000 0000000000000000000000000000000000000000BSS CARD       00003000000007850000000005500000000482800000000049120000000000000                                                           
201823499                         0000000000        00099999999 000000000000 0000000000000000000000000000000000000000MERCHANT TOTAL 00009000000179570000000125700000011153960000001134610000000000000                                                           
201823507KERRY EXPRESS(LADKRABANG)101344729517/06/1700000000000 000000000000 0000000000000000000000000000000000000000               00000000000000000000000000000000000000000000000000000171670110711                                                           
201823507                         0000000000        00080243203S013665008799V1606174391370006332684000000146000124839               00000000000000000000000000000000000000000000000000000000000000000                                                           
201823507                         0000000000        00080243203S013665008800S1606174283802800198037000000853980164420               00000000000000000000000000000000000000000000000000000000000000000                                                           
201823507                         0000000000        00099999999 000000000000 0000000000000000000000000000000000000000BBL CARD       00001000000031390000000022000000001426410000000146000000000000000                                                           
201823507                         0000000000        00099999999 000000000000 0000000000000000000000000000000000000000BBL AFFINITY   00000000000000000000000000000000000000000000000000000000000000000                                                           
201823507                         0000000000        00099999999 000000000000 0000000000000000000000000000000000000000VISA CARD      00001000000046960000000032900000008489550000000853980000000000000                                                           
201823507                         0000000000        00099999999 000000000000 0000000000000000000000000000000000000000VISA AFFINITY  00000000000000000000000000000000000000000000000000000000000000000                                                           
201823507                         0000000000        00099999999 000000000000 0000000000000000000000000000000000000000MASTERCARD     00000000000000000000000000000000000000000000000000000000000000000                                                           
201823507                         0000000000        00099999999 000000000000 0000000000000000000000000000000000000000MASTER AFFINITY00000000000000000000000000000000000000000000000000000000000000000                                                           
201823507                         0000000000        00099999999 000000000000 0000000000000000000000000000000000000000JCB CARD       00000000000000000000000000000000000000000000000000000000000000000                                                           
201823507                         0000000000        00099999999 000000000000 0000000000000000000000000000000000000000BSS CARD       00000000000000000000000000000000000000000000000000000000000000000                                                           
201823507                         0000000000        00099999999 000000000000 0000000000000000000000000000000000000000MERCHANT TOTAL 00002000000078350000000054900000009915960000000999980000000000000                                                           
201823978KERRY EXPRESS(PINKLAO)   101344729517/06/1700000000000 000000000000 0000000000000000000000000000000000000000               00000000000000000000000000000000000000000000000000000171670110711                                                           
201823978                         0000000000        00080242565S013455018064S1606174162020411137452000000163000152900               00000000000000000000000000000000000000000000000000000000000000000                                                           
201823978                         0000000000        00080242565S013455018065S1606175577552824490710000000088000079775               00000000000000000000000000000000000000000000000000000000000000000                                                           
201823978                         0000000000        00080242565S013455018067M1606175410290100321850000000102005657055               00000000000000000000000000000000000000000000000000000000000000000                                                           
201823978                         0000000000        00080242565S013455018068V1606174543250001641940000000251130273045               00000000000000000000000000000000000000000000000000000000000000000                                                           
201823978                         0000000000        00080242565S013455018070S1606174532153533501512000000084096522680               00000000000000000000000000000000000000000000000000000000000000000                                                           
201823978                         0000000000        00080242565S013455018072V1606174773760600427625000000182800101044               00000000000000000000000000000000000000000000000000000000000000000                                                           
201823978                         0000000000        00080242565S013455018073M1606175407160005685441000000023400529672               00000000000000000000000000000000000000000000000000000000000000000                                                           
201823978                         0000000000        00080242565S013455018076S1606174622871054627173000000004500033466               00000000000000000000000000000000000000000000000000000000000000000                                                           
201823978                         0000000000        00099901450S000096000001B16061700000880027817370000000260000000DA               00000000000000000000000000000000000000000000000000000000000000000                                                           
201823978                         0000000000        00099999999 000000000000 0000000000000000000000000000000000000000BBL CARD       00002000000093290000000065300000004239480000000433930000000000000                                                           
201823978                         0000000000        00099999999 000000000000 0000000000000000000000000000000000000000BBL AFFINITY   00002000000026960000000018900000001225200000000125405000000000000                                                           
201823978                         0000000000        00099999999 000000000000 0000000000000000000000000000000000000000VISA CARD      00002000000013590000000009500000002456420000000247096000000000000                                                           
201823978                         0000000000        00099999999 000000000000 0000000000000000000000000000000000000000VISA AFFINITY  00001000000000240000000000200000000044740000000004500000000000000                                                           
201823978                         0000000000        00099999999 000000000000 0000000000000000000000000000000000000000MASTERCARD     00001000000004840000000003400000000874820000000088000000000000000                                                           
201823978                         0000000000        00099999999 000000000000 0000000000000000000000000000000000000000MASTER AFFINITY00000000000000000000000000000000000000000000000000000000000000000                                                           
201823978                         0000000000        00099999999 000000000000 0000000000000000000000000000000000000000JCB CARD       00000000000000000000000000000000000000000000000000000000000000000                                                           
201823978                         0000000000        00099999999 000000000000 0000000000000000000000000000000000000000BSS CARD       00001000000004160000000002900000000255550000000026000000000000000                                                           
201823978                         0000000000        00099999999 000000000000 0000000000000000000000000000000000000000MERCHANT TOTAL 00009000000143080000000100200000009096210000000924931000000000000                                                           
201823986KERRY EXPRESS(TALADPHU)  101344729517/06/1700000000000 000000000000 0000000000000000000000000000000000000000               00000000000000000000000000000000000000000000000000000171670110711                                                           
